:100000000C94311C0C94621C0C94621C0C94621CA9
:100010000C94621C0C94621C0C94621C0C94621C68
:100020000C94621C0C94621C0C94621C0C94621C58
:100030000C94621C0C94621C0C94621C0C94621C48
:100040000C94621C0C9485BE0C94621C0C94621C73
:100050000C94621C0C94621C0C949A760C943D7661
:100060000C94621C0C94B5540C94621C0C94621C8D
:100070000C94621C0C94621C0C94621C0C94621C08
:100080000C94621C0C94621C0C94621C0C94621CF8
:100090000C94621C0C94621C0C94621C0C94726B89
:1000A0000C94621C0C94621C0C94621C0C94621CD8
:1000B0000C94621C0C94621C0C94621C0C94621CC8
:1000C0000C94621C0C94621C0C94621C0C94621CB8
:1000D0000C94621C0C94621C0C94621C0C94621CA8
:1000E0000C94621C8136843688368C369036943671
:1000F0008A3798369C36A1368A37A636AC36B03663
:10010000B436B836BC368A37C036C436CA368A37B3
:10011000D036E636E836F636F836FA36FC360237AA
:1001200004370637083712371437163718371E3793
:1001300020378A378A378A378A378A378A378A3721
:100140008A378A378A378A378A378A378A378A37A7
:100150008A378A378A378A378A378A378A378A3797
:100160008A378A378A378A378A378A378A378A3787
:100170008A378A378A378A378A378A378A378A3777
:100180008A378A378A378A378A378A378A378A3767
:100190008A378A378A378A378A378A378A378A3757
:1001A0008A378A378A378A378A378A372A374B37E6
:1001B0009A499A49A849B649D249E049EE49FC49C9
:1001C0000D4AC449BB74BE74AD74B174B574F57492
:1001D000C274C674CC74D074D474DA74DE74E274ED
:1001E000F574E874EC74F0746C75717576758075DF
:1001F0008A75037694759C75A475AE75B875C275CD
:10020000D175DB750376E575EF75F975084AD73B4F
:100210003BCE016E84BCBFFDC12F3D6C74319ABDD5
:1002200056833DDA3D00C77F11BED9E4BB4C3E91F9
:100230006BAAAABE000000803F05A84CCDB2D44EE8
:10024000B93836A9020C50B9918688083CA6AAAAEA
:100250002ABE000000803F004E414E494E4954598D
:10026000494E46CDCCCC3D0AD7233C17B7D1387781
:10027000CC2B329595E6241FB14F0A000020410097
:1002800000C84200401C4620BCBE4CCA1B0E5AAEE1
:10029000C59D7443617264206572726F723A004E3C
:1002A0006F74205344207072696E74696E67002FFA
:1002B000005344207072696E74696E6720627974AD
:1002C0006520002E0044656C6574696F6E20666160
:1002D000696C65642C2046696C653A200046696C3F
:1002E000652064656C657465643A002E006F706506
:1002F0006E206661696C65642C2046696C653A20E5
:1003000000504944204175746F74756E65206669AC
:100310006E69736865642120507574207468652067
:100320004B702C204B6920616E64204B6420636FFE
:100330006E7374616E747320696E746F20436F6E98
:1003400066696775726174696F6E2E680050494402
:10035000204175746F74756E65206661696C6564A3
:10036000212074696D656F75740020403A006F6BD1
:1003700020543A006F6B20423A00504944204175A6
:10038000746F74756E65206661696C6564212054B4
:10039000656D706572617475726520746F6F206829
:1003A00069676800204B643A2000204B693A2000BE
:1003B000204B703A200020436C61736963205049E0
:1003C0004420002054753A2000204B753A2000202C
:1003D0006D61783A2000206D696E3A200020643A01
:1003E000200020626961733A200050494420417521
:1003F000746F74756E652073746172740050494433
:10040000204175746F74756E65206661696C6564F2
:100410002E20426164206578747275646572206E66
:10042000756D6265722E000D0A003F00536F6C6F90
:100430005363756C70746F72000D0A00556E6B6EAD
:100440006F776E20636F6D6D616E643A2000544566
:1004500053540D0A002200556E6B6E6F776E206349
:100460006F6D6D616E643A202200456C6563747235
:100470006F6E6963735F746573740041637469764A
:10048000652045787472756465723A2000496E760D
:10049000616C6964206578747275646572005400DB
:1004A00020423A300020423A31006F6B20523A002D
:1004B00020633A0020643A0020693A0020703A0034
:1004C0006F6B002200556E6B6E6F776E20636F6DE1
:1004D0006D616E643A2022006F70656E005452495F
:1004E000474745524544007A5F6D61783A20006F76
:1004F00070656E0054524947474552454400795F44
:100500006D61783A20006F70656E0054524947471C
:100510004552454400785F6D696E3A20005265701F
:100520006F7274696E6720656E6473746F70207388
:100530007461747573005A3A00593A0020436F751C
:100540006E7420583A2000453A005A3A00593A0051
:10055000583A004649524D574152455F4E414D452C
:100560003A4D61726C696E20536F6C6F5363756C9A
:1005700070746F723B20537072696E7465722F676E
:1005800072626C206D617368757020666F7220678F
:10059000656E36204649524D574152455F55524C83
:1005A0003A687474703A2F2F736F6C6F7363756C45
:1005B00070746F722E636F6D2F6669726D776172E2
:1005C000652F2050524F544F434F4C5F5645525366
:1005D000494F4E3A312E30204D414348494E455FF8
:1005E000545950453A536F6C6F5363756C70746F08
:1005F00072204649524D574152455F564552534924
:100600004F4E3A32303137303132382E3120455862
:100610005452554445525F434F554E543A310A00A7
:1006200020423A0020453A003A0054003F0020574B
:100630003A0020453A003A0054002040303A002069
:100640002F002054303A002042403A0020403A0027
:10065000202F0020423A00202F003A006F6B2054D8
:10066000002569206D696E2C202569207365630063
:10067000456E642066696C65206C69737400426520
:1006800067696E2066696C65206C697374004350FD
:10069000450041425300504C41002020506C616E97
:1006A0006E657242756666657242797465733A204A
:1006B000002046726565204D656D6F72793A2000A5
:1006C000417072202031203230313700436F6D701D
:1006D000696C65643A2000536F6C6F5363756C707E
:1006E000746F7200207C20417574686F723A20002C
:1006F00041707220203120323031372031383A3485
:10070000393A323100204C61737420557064617441
:1007100065643A2000312E302E30004D61726C69D4
:100720006E200020536F6674776172652052657386
:10073000657400205761746368646F672052657345
:100740006574002042726F776E206F757420526559
:10075000736574002045787465726E616C20526513
:1007600073657400506F77657255700073746172B1
:1007700074004D383420582059205A2045006563B4
:10078000686F3A00256920686F75727320256920AB
:100790006D696E7574657300446F6E652070726963
:1007A0006E74696E672066696C65005072696E745C
:1007B00065722073746F7070656420647565207451
:1007C0006F206572726F72732E204669782074688C
:1007D00065206572726F7220616E6420757365208A
:1007E0004D39393920746F20726573746172742EBB
:1007F000202854656D706572617475726520697327
:100800002072657365742E205365742069742061AD
:10081000667465722072657374617274696E67299B
:10082000006F6B004E6F204C696E65204E756D62D7
:100830006572207769746820636865636B73756D92
:100840002C204C617374204C696E653A20004E6F09
:1008500020436865636B73756D2077697468206CDD
:10086000696E65206E756D6265722C204C617374C3
:10087000204C696E653A2000636865636B73756D23
:10088000206D69736D617463682C204C61737420F2
:100890004C696E653A20004C696E65204E756D623C
:1008A0006572206973206E6F74204C617374204CE4
:1008B000696E65204E756D6265722B312C204C611E
:1008C0007374204C696E653A20004572726F723AFB
:1008D000004D313130006572726F72207772697429
:1008E000696E6720746F2066696C6500205A3A0053
:1008F00020593A0020583A00656E6473746F707323
:10090000206869743A20006563686F3A00446F6E2E
:100910006520736176696E672066696C652E006F6D
:100920006B004D3239003F3F3F0043757272656E78
:100930007420450043757272656E74205A004375C9
:100940007272656E7420582F59004D617820737053
:10095000656564205A004D61782073706565642078
:1009600059004D6178207370656564205800582FD8
:1009700059204A65726B00416363656C65726174EE
:10098000696F6E003C2052455455524E006D410037
:100990006D41006D41006D6D2F736563006D6D2FAE
:1009A000736563006D6D2F736563006D6D2F7365E7
:1009B00063006D6D2F7365635E32006D410043759A
:1009C0007272656E742045006D41004375727265E8
:1009D0006E74205A006D410043757272656E74200A
:1009E000582F59006D6D2F736563004D617820732A
:1009F00070656564205A006D6D2F736563004D61ED
:100A0000782073706565642059006D6D2F73656380
:100A1000004D61782073706565642058006D6D2FFE
:100A200073656300582F59204A65726B0030306D32
:100A30006D2F7365635E3200416363656C6572613F
:100A400074696F6E004D4F54494F4E003F3F3F0059
:100A500020476C6F77207768656E20646F6E650045
:100A6000204F6E207768696C65207072696E7469BA
:100A70006E670020416C77617973204F66660020B5
:100A8000416C77617973204F6E00427269676874B8
:100A90006E657373003C2052455455524E0025003C
:100AA00025004272696768746E657373004C454433
:100AB0000047323820583020593000473120462531
:100AC0006920582569205925690047323820583057
:100AD0002059300052455455524E00534554544904
:100AE0004E4753004348414E474500666F72206DA4
:100AF0006174657269616C2072656D6F76616C00FE
:100B000048656174696E67207072696E74686561AA
:100B10006400526576657273696E67206D617465F5
:100B20007269616C0052656D6F7665206D617465E8
:100B30007269616C0043414E43454C00524541444B
:100B40005900250046616E3A20004300430025000D
:100B5000466C6F773A006D6D004D415445524941E6
:100B60004C006D6174657269616C20696E736572A9
:100B700074696F6E00436F6F6C696E672070726985
:100B80006E746865616420666F720048656174699F
:100B90006E67207072696E746865616420666F723A
:100BA0000061626F766520746865206172726F778C
:100BB0002E00796F7572206D616368696E652C0017
:100BC00066726F6D20746865206261636B7369641F
:100BD00065206F6600496E73657274206E657720BC
:100BE0006D6174657269616C0043414E43454C0010
:100BF000524541445900466F7277617264696E676D
:100C0000206D6174657269616C00636F6D6573203E
:100C10006F757420746865206E6F7A7A6C65005702
:100C20006169742074696C6C206D617465726961AE
:100C30006C0043414E43454C0052454144590069C4
:100C40006E204D4154455249414C2E545854007425
:100C50006F2074686520534420636172640053619F
:100C6000766564206D6174657269616C73004F6BA9
:100C7000005072696E74696E6720776974682055D8
:100C800053422E2E2E00756C74696D616B65722E49
:100C9000636F6D2F4552303700476F20746F3A00F5
:100CA00058206F72205920737769746368207374B9
:100CB00075636B00756C74696D616B65722E636F23
:100CC0006D2F4552303700476F20746F3A0058201F
:100CD0006F722059207377697463682062726F6B3A
:100CE000656E00756C74696D616B65722E636F6DF6
:100CF0002F4552303600476F20746F3A005A2073E8
:100D0000776974636820737475636B00756C7469BC
:100D10006D616B65722E636F6D2F455230350047E4
:100D20006F20746F3A005A20737769746368206289
:100D3000726F6B656E00756C74696D616B65722E98
:100D4000636F6D2F4552303400476F20746F3A0047
:100D5000536166657479206369726375697400759F
:100D60006C74696D616B65722E636F6D2F455230C7
:100D70003300476F20746F3A0048656174657220D4
:100D80006572726F7200756C74696D616B65722E3D
:100D9000636F6D2F4552303200476F20746F3A00F9
:100DA00054656D702073656E736F72204245440008
:100DB000756C74696D616B65722E636F6D2F455232
:100DC000303100476F20746F3A0054656D702073A6
:100DD000656E736F72004552524F52202D2053544E
:100DE0004F505045440053657474696E67732053C7
:100DF000746F726564002044002049002020204D5B
:100E00003330312050005049442073657474696E4A
:100E100067733A00205A0020590020204D323036A6
:100E2000205800486F6D65206F66667365742028D2
:100E30006D6D293A00204500205A002058002042BC
:100E40000020540020204D3230352053004164767C
:100E5000616E636564207661726961626C65733A84
:100E600020533D4D696E206665656472617465202E
:100E7000286D6D2F73292C20543D4D696E2074729E
:100E80006176656C20666565647261746520286DA5
:100E90006D2F73292C20423D6D696E696D756D2033
:100EA0007365676D656E742074696D6520286D7358
:100EB000292C20583D6D6178696D756D2058592039
:100EC0006A65726B20286D6D2F73292C20205A3D86
:100ED0006D6178696D756D205A206A65726B202886
:100EE0006D6D2F73292C2020453D6D6178696D75DE
:100EF0006D2045206A65726B20286D6D2F73290067
:100F000020540020204D323034205300416363656B
:100F10006C65726174696F6E3A20533D61636365FD
:100F20006C65726174696F6E2C20543D72657472C9
:100F300061637420616363656C65726174696F6E6F
:100F400000204500205A0020590020204D32303129
:100F50002058004D6178696D756D20416363656C43
:100F600065726174696F6E20286D6D2F7332293A36
:100F700000204500205A0020590020204D323033F7
:100F80002058004D6178696D756D206665656472E5
:100F90006174657320286D6D2F73293A0020450018
:100FA000205A0020590020204D3932205800537417
:100FB0006570732070657220756E69743A005630E2
:100FC00031300053746F7265642073657474696E98
:100FD0006773207265747269657665640048617232
:100FE00064636F6465642044656661756C74205346
:100FF000657474696E6773204C6F61646564006525
:1010000063686F3A002200656E717565696E6720CE
:1010100022002200656E717565696E6720220000EE
:10102000005E430080604300006143000000000058
:10103000000000000000000000000000806043008D
:101040000061435072696E7465722068616C7465EA
:10105000642E206B696C6C28292063616C6C65645C
:1010600021005072696E7465722073746F707065C0
:10107000642064756520746F206572726F72732EC0
:101080002046697820746865206572726F722061ED
:101090006E6420757365204D39393920746F207264
:1010A0006573746172742E202854656D7065726169
:1010B000747572652069732072657365742E205390
:1010C000657420697420616674657220726573743A
:1010D000617274696E6729004D32313820496E762D
:1010E000616C696420657874727564657220004D66
:1010F00031303920496E76616C696420657874728C
:101100007564657220004D31303520496E76616C12
:10111000696420657874727564657220004D3130A1
:101120003420496E76616C696420657874727564E8
:1011300065722000456E6473746F70207374696CFF
:101140006C207072657373656420616674657220CB
:101150006261636B696E67206F66662E20456E6400
:1011600073746F7020737475636B3F000000E04010
:101170000000E0400000E040456E6473746F702032
:101180006E6F742070726573736564206166746538
:101190007220686F6D696E6720646F776E2E2045D0
:1011A0006E6473746F702062726F6B656E3F004582
:1011B0006E6473746F70206E6F74207072657373D9
:1011C000656420616674657220686F6D696E672062
:1011D000646F776E2E20456E6473746F7020627238
:1011E0006F6B656E3F00FF010100005E4300806091
:1011F000430000614300002110422063308440A579
:1012000050C660E770088129914AA16BB18CC1ADCD
:10121000D1CEE1EFF13112100273325222B5529465
:1012200042F772D662399318837BB35AA3BDD39C1D
:10123000C3FFF3DEE36224433420040114E664C7F1
:1012400074A44485546AA54BB528850995EEE5CF6D
:10125000F5ACC58DD55336722611163006D776F605
:10126000669556B4465BB77AA719973887DFF7FEBD
:10127000E79DD7BCC7C448E5588668A77840086191
:101280001802282338CCC9EDD98EE9AFF94889690D
:10129000990AA92BB9F55AD44AB77A966A711A50A5
:1012A0000A333A122AFDDBDCCBBFFB9EEB799B585D
:1012B0008B3BBB1AABA66C877CE44CC55C222C0331
:1012C0003C600C411CAEED8FFDECCDCDDD2AAD0BAD
:1012D000BD688D499D977EB66ED55EF44E133E3245
:1012E0002E511E700E9FFFBEEFDDDFFCCF1BBF3AFD
:1012F000AF599F788F8891A981CAB1EBA10CD12DEC
:10130000C14EF16FE18010A100C230E320045025EE
:101310004046706760B9839893FBA3DAB33DC31C62
:10132000D37FE35EF3B1029012F322D2323542143E
:101330005277625672EAB5CBA5A89589856EF54FAE
:10134000E52CD50DC5E234C324A01481046674478E
:101350006424540544DBA7FAB79987B8975FE77E02
:10136000F71DC73CD7D326F2369106B016576676DE
:1013700076154634564CD96DC90EF92FE9C899E94E
:10138000898AB9ABA94458654806782768C018E12E
:10139000088238A3287DCB5CDB3FEB1EFBF98BD8A2
:1013A0009BBBAB9ABB754A545A376A167AF10AD07E
:1013B0001AB32A923A2EFD0FED6CDD4DCDAABD8BEE
:1013C000ADE89DC98D267C076C645C454CA23C83CE
:1013D0002CE01CC10C1FEF3EFF5DCF7CDF9BAFBA42
:1013E000BFD98FF89F176E367E554E745E932EB21E
:1013F0003ED10EF01E7C3C3E5E2B3D3F2F5B5D3BA5
:101400002C2A225C00000000000000005F000000A9
:1014100007000700147F147F14242A7F2A12231345
:1014200008646236495522500005030000001C2262
:1014300041000041221C00082A1C2A0808083E0816
:10144000080050300000080808080800606000002C
:1014500020100804023E5149453E00427F400042B0
:10146000615149462141454B311814127F102745DF
:101470004545393C4A494930017109050336494916
:101480004936064949291E00363600000056360006
:1014900000000814224114141414144122140800EA
:1014A0000201510906324979413E7E1111117E7FB8
:1014B000494949363E414141227F4141221C7F49F1
:1014C0004949417F090901013E414151327F0808E4
:1014D000087F00417F41002040413F017F081422E6
:1014E000417F404040407F0204027F7F0408107F1C
:1014F0003E4141413E7F090909063E4151215E7F3F
:1015000009192946464949493101017F01013F40F6
:1015100040403F1F2040201F7F2018207F63140879
:1015200014630304780403615149454300007F417B
:1015300041020408102041417F000004020102041E
:101540004040404040000102040020545454787F41
:10155000484444383844444420384444487F38544C
:10156000545418087E090102081454543C7F08049E
:10157000047800447D40002040443D00007F102856
:101580004400417F40007C041804787C08040478FF
:1015900038444444387C14141408081414187C7C0F
:1015A000080404084854545420043F4440203C405C
:1015B00040207C1C2040201C3C4030403C442810F3
:1015C00028440C5050503C4464544C44000836416C
:1015D0000000007F0000004136080008082A1C08AF
:1015E000081C2A08082073656300206D696E0020BE
:1015F000686F75720020686F75727300627574741D
:101600006F6E20746F20636F6E74696E7565005520
:101610006C74696D616B6572212050726573732003
:101620007468650073746172747570206F662079D8
:101630006F75720057656C636F6D6520746F2074F1
:10164000686520666972737400312F323100434F30
:101650004E54494E554500473120462569205A25AC
:1016600069205825692059256900473238205A30A9
:10167000205830205930006275696C64706C617458
:10168000652E006F662061646A757374696E6720E9
:10169000796F7572007468726F7567682074686519
:1016A0002070726F6365737300492077696C6C20DA
:1016B000677569646520796F750043414E43454CF9
:1016C00000434F4E54494E55450047312046256949
:1016D000205A256900473238205A30006120666957
:1016E0007273742072756E2077697A6172642E004D
:1016F00077616C6B20796F75207468726F7567689D
:101700000066697273742073746172747570204915
:101710002077696C6C00426563617573652074683D
:1017200069732069732074686500322F3231004379
:101730004F4E54494E554500473120462569205AA1
:1017400025692058256920592569004732382058D5
:1017500030205930000A006469616D657465723D1E
:10176000000A00666C6F773D000A0066616E5F7369
:10177000706565643D000A006265645F74656D7044
:10178000657261747572653D000A003D0072657492
:1017900072616374696F6E5F73706565645F000A80
:1017A000003D0072657472616374696F6E5F6C6591
:1017B0006E6774685F000A003D0074656D70657245
:1017C00061747572655F000A0074656D70657261A1
:1017D000747572653D000A006E616D653D005B6D5C
:1017E0006174657269616C5D0A0052656164696E5D
:1017F0006720636172642E2E2E00506C65617365E4
:1018000020696E736572742063617264004E6F208C
:1018100053442D43415244210066726F6D20746819
:10182000652053442063617264004C6F6164656499
:10183000206D6174657269616C73004F6B00726535
:101840007472616374696F6E5F73706565645F0065
:1018500072657472616374696F6E5F6C656E6774D4
:10186000685F0074656D70657261747572655F00A4
:101870006469616D6574657200666C6F770066619E
:101880006E5F7370656564006265645F74656D703A
:10189000657261747572650074656D7065726174EE
:1018A000757265006E616D65005B6D61746572696E
:1018B000616C5D00466F756E64206F6E20636172AF
:1018C000642E004E6F206578706F72742066696CAC
:1018D000650052656164696E6720636172642E2ED3
:1018E0002E00506C6561736520696E73657274209B
:1018F00063617264004E6F2053442D434152442172
:10190000004578706F727420746F20534400496DE5
:10191000706F72742066726F6D205344004375734C
:10192000746F6D697A65003C2052455455524E00E3
:10193000250046616E3A2000430043002500466CB6
:101940006F773A006D6D004C6F61647320616C6C51
:10195000206D6174657269616C73005361766573A3
:1019600020616C6C206D6174657269616C73004DEF
:101970006F64696679207468652073657474696E34
:101980006773004D4154455249414C0053656C65A5
:1019900063746564206D6174657269616C3A004FAF
:1019A0004B003F3F3F0053746F726520617320709E
:1019B00072657365740052657472616374696F6EE9
:1019C00000466C6F7720250046616E004469616DAA
:1019D0006574657200486561746564206275696C40
:1019E00064706C6174650054656D706572617475C6
:1019F0007265003C2052455455524E00250025008A
:101A00006D6D00430043200043200025004D6174AC
:101A1000657269616C20666C6F7700250046616EA7
:101A2000207370656564006D6D004D617465726949
:101A3000616C204469616D65746572004300427594
:101A4000696C64706C6174652054656D702E004D16
:101A50004154455249414C00202D20496E76616C1D
:101A60006964206578747275646572206E756D6244
:101A700065722021000000000018070100A807146B
:101A80000030082800B8083C0038095000C009643C
:101A900000480A7800C80A8C00480BA000C80BB4A4
:101AA00000480CC800C80CDC00400DF000C00D045C
:101AB00001380E1801B00E2C01280F4001A00F5460
:101AC000011810680188107C01001190013013F496
:101AD00001481558024017BC0228192003F01A8447
:101AE00003A81CE803401E4C043A20457874727524
:101AF000646572207377697463686564206F6666D5
:101B00002E204D415854454D5020747269676765C9
:101B10007265642021003A2045787472756465729C
:101B2000207377697463686564206F66662E204D44
:101B3000494E54454D5020747269676765726564FB
:101B400020210054656D706572617475726520683E
:101B50006561746564206265642073776974636885
:101B60006564206F66662E204D415854454D5020C7
:101B7000747269676765726564202121004572721D
:101B80006F723A0000002100240027002A002D0077
:101B90003000330001010000040107010A010000C8
:101BA0002200250028002B002E0031003400020105
:101BB0000000050108010B010505050507050808DA
:101BC0000808020202020A0A0808040404040101C7
:101BD00001010101010103030303030303030407DC
:101BE00007070C0C0C0C0C0C0C0C02020202060673
:101BF0000606060606060B0B0B0B0B0B0B0B010266
:101C0000102020080810204010204080020102010E
:101C100008040201010204081020408080402010C6
:101C2000080402018004020180402010080402011F
:101C30000804020101020408102040800102040887
:101C40001020408000000A0B02090C0D0E0807034B
:101C5000040100000000000000000000000000007F
:101C60000000000000000000000000000000000074
:101C70001211100000000000000000000000000031
:101C80000000000000000000000053442063617267
:101C900064206F6B006F70656E526F6F74206661A9
:101CA000696C656400766F6C756D652E696E69741C
:101CB000206661696C6564004572726F723A005308
:101CC0004420696E6974206661696C006563686FA1
:101CD0003A004D3234004D32332025730061757463
:101CE0006F25692E67004D41494E54454E414E4384
:101CF00045004D4154455249414C005052494E54C3
:101D00000043414E43454C00507265763A20003CFA
:101D10002052455455524E0054656D706572617481
:101D20007572653A20004300430054656D7065721A
:101D30006174757265004D4154455249414C003CF7
:101D40002052455455524E00526574726163746955
:101D50006F6E3A20006D6D2F73006D6D20004D4148
:101D600054455249414C0052657472616374206C51
:101D7000656E677468003F3F3F005265747261632F
:101D800074207370656564003C2052455455524E72
:101D9000006D6D2F736563006D6D006D6D2F736544
:101DA00063005265747261637420737065656400CA
:101DB0006D6D0052657472616374206C656E67743A
:101DC000680052455452414354494F4E003C205202
:101DD000455455524E004E65772070726573657498
:101DE0000050524553455453005450552039354105
:101DF000004350452B004E796C6F6E0050430043FA
:101E000050450041425300504C410054696D6520DB
:101E10006C6566740054696D65206C656674207528
:101E20006E6B6E6F776E00430043004865617469A6
:101E30006E67206275696C64706C61746500430044
:101E4000430048656174696E67005072696E746919
:101E50006E673A0050415553450054554E45005465
:101E6000554E45004348414E47457C4D41544552EF
:101E700049414C00524553554D457C5052494E54B2
:101E800000756C74696D616B65722E636F6D2F45A3
:101E900052303800476F20746F3A00726561646990
:101EA0006E672053442D6361726421004572726F26
:101EB00072207768696C650052455455524E205423
:101EC0004F204D41494E006F66207072696E7469F3
:101ED0006E6720617265610054726965642070727A
:101EE000696E74696E67206F7574004552524F5267
:101EF0003A0052455455524E20544F204D41494EC0
:101F00000066726F6D2074686520736C696365721A
:101F10002E0073657474696E672077697468207326
:101F2000657474696E67006F7665727269646520A6
:101F30006D616368696E6500546869732066696CD9
:101F4000652077696C6C0043414E43454C00434F1C
:101F50004E54494E55450025732076732025730055
:101F60006D6174657269616C2E00666F722061200C
:101F7000646966666572656E74005468697320668C
:101F8000696C6520697320637265617465640043E0
:101F9000414E43454C00434F4E54494E5545004138
:101FA000626F727420746865207072696E743F008D
:101FB0004E4F005945530043004320005072696E54
:101FC00074657220636F6F6C696E6720646F776EE3
:101FD000004241434B20544F204D454E55007468FC
:101FE00065207072696E742E00596F752063616E82
:101FF0002072656D6F7665005072696E7420666937
:102000006E6973686564004241434B20544F204D14
:10201000454E55004C4544204272696768746E65B0
:1020200073730052657472616374696F6E004D6101
:1020300074657269616C20666C6F770046616E2012
:102040007370656564004275696C64706C61746579
:102050002074656D702E0054656D706572617475C5
:1020600072650053706565640041626F7274003C74
:102070002052455455524E002500250025004300AE
:1020800043004300430025004300432F00436C6995
:10209000636B20746F2072657475726E004E6F7A78
:1020A0007A6C652074656D70657261747572653ADD
:1020B0000025004272696768746E657373002500BD
:1020C0004D6174657269616C20666C6F77002500E4
:1020D00046616E2073706565640025005072696EFC
:1020E000742073706565640054554E4500526574E4
:1020F00072616374206C656E677468003F3F3F00D7
:1021000052657472616374207370656564003C206D
:1021100052455455524E006D6D2F736563006D6DC1
:10212000006D6D2F73656300526574726163742076
:102130007370656564006D6D0052657472616374DF
:10214000206C656E6774680052455452414354498F
:102150004F4E004D363031205835205935205A2504
:1021600069204C25690020746F6F206C6F6E6720AA
:10217000657874727573696F6E2070726576656EBE
:102180007465640020636F6C642065787472757385
:10219000696F6E2070726576656E74656400656344
:1021A000686F3A00676F696E6720746F20646F20F4
:1021B00074686174206E6F772E0061646A75737441
:1021C0006D656E74732C207765206172650077658C
:1021D000206E65656420746F20646F20736F6D6579
:1021E000004166746572207472616E73706F7274F0
:1021F0006174696F6E00332F323100434F4E544982
:102200004E554500473120462569205A3000473158
:102210002046256920582569205925690047312025
:10222000462569205A350066726F6D2074686520F6
:102230006275696C64706C6174652E0061206D69F3
:102240006C6C696D65746572206177617900756E7B
:1022500074696C20746865206E6F7A7A6C65206989
:102260007300526F746174652074686520627574C0
:10227000746F6E00342F323100434F4E54494E5527
:102280004500434F4E54494E5545004731204625A1
:1022900069205A3000473120462569205825692099
:1022A00059256900473120462569205A3500667254
:1022B0006F6D20746865206275696C64706C617400
:1022C000652E0069732061206D696C6C696D6574A1
:1022D0006572206177617900736372657720746934
:1022E0006C6C20746865206E6F7A7A6C650054752A
:1022F000726E206C656674206275696C64706C61C6
:10230000746500352F323100434F4E54494E5545C8
:102310000066726F6D20746865206275696C647008
:102320006C6174652E0069732061206D696C6C6945
:102330006D6574657220617761790073637265778A
:102340002074696C6C20746865206E6F7A7A6C6595
:10235000005475726E207269676874206275696CCA
:1023600064706C61746500362F323100434F4E54F7
:10237000494E554500473120462569205A300047CF
:1023800031204625692058256920592569004731A3
:1023900020462569205A3500746865206275696C8D
:1023A00064706C617465206C6576656C2E0070617C
:1023B00070657220746F2066696E652D74756E6528
:1023C000006E6F7720757365206120736865657492
:1023D000206F6600526570656174207468697320AF
:1023E000737465702C2062757400372F323100438E
:1023F0004F4E54494E5545006269742072657369A9
:102400007374616E63652E00756E74696C20796FEC
:1024100075206665656C2061006275696C64706C1E
:1024200061746520616E64206E6F7A7A6C6500530A
:102430006C696465206120706170657220626574EA
:102440007765656E00382F323100434F4E54494E48
:10245000554500434F4E54494E554500746865201C
:102460006C65667420636F726E65722E2E2E00523C
:102470006570656174207468697320666F720039D5
:102480002F323100434F4E54494E554500473238A4
:10249000205A300074686520726967687420636F21
:1024A000726E65722E2E2E005265706561742074F6
:1024B00068697320666F720031302F323100434FEC
:1024C0004E54494E554500444F4E45004D3834005A
:1024D00047312046313230303020583131302059A8
:1024E000313000746F20696E73657274206D617491
:1024F000657269616C2E00746865206E6578742061
:102500007374657020697300746865206275696C06
:1025100064706C617465004E6F772074686174201C
:102520007765206C6576656C65640031312F3231DA
:1025300000434F4E54494E554500556C74696D61CA
:102540006B6572322E00696E7365727420696E203D
:1025500074686973006D6174657269616C20796F6C
:10256000752077696C6C004E6578742C2073656CEF
:10257000656374207468650031322F323100524532
:102580004144590053656C65637420746865206D1F
:102590006174657269616C00206173206D6174659E
:1025A0007269616C2C0031332F3231004D4154453A
:1025B0005249414C006973207468697320726967DD
:1025C00068743F00596F7520686176652063686F95
:1025D00073656E0031342F3231004E4F0059455330
:1025E000006974206973207573696E672E006F66C9
:1025F000206D6174657269616C006B6E6F7773201A
:1026000077686174206B696E64004E6F7720796F14
:10261000757220556C74696D616B6572320031356D
:102620002F323100434F4E54494E5545006D617471
:10263000657269616C206C6F6164696E67007072AD
:10264000696E74686561642068656174696E67208D
:10265000666F7200506C6561736520776169742CD8
:102660000031362F32310061626F76652074686503
:10267000206172726F772E00796F757220556C74BD
:10268000696D616B6572322C0066726F6D207468C3
:10269000652072656172206F6600496E73657274A1
:1026A000206E6577206D6174657269616C003137E9
:1026B0002F323100434F4E54494E5545004C6F6107
:1026C00064696E67206D6174657269616C2E2E2E6F
:1026D0000031382F32310066726F6D206E6F7A7A5A
:1026E0006C652E2E2E006D6174657269616C2065BB
:1026F00078697473005075736820627574746F6EB6
:10270000207768656E0031392F323100434F4E54C7
:10271000494E5545006D616B652061203344205062
:1027200072696E74210049276D2072656164792099
:102730006C657427730032302F32310041524520CE
:10274000594F552052454144593F00746F207072D3
:10275000696E742069742100616E64207072657303
:10276000732074686520627574746F6E006F6E20DC
:102770007468652053442D636172640053656C6511
:1027800063742061207072696E742066696C6500E4
:1027900032312F3231004C45542753205052494E8C
:1027A000540052656164696E6720636172642E2E05
:1027B0002E0032312F323100796F757220556C74D2
:1027C000696D616B6572322E2E2E00746861742003
:1027D00063616D65207769746800506C656173652D
:1027E00020696E736572742053442D6361726400B6
:1027F00032312F32310052455455524E0041445629
:10280000414E434544004255494C442D7C504C4177
:102810005445003F3F3F00466163746F72792072F8
:10282000657365740052756E74696D6520737461AB
:1028300074730056657273696F6E004D6F74696FC3
:102840006E2073657474696E6773005365742066D7
:10285000616E207370656564004D6F7665206D61F3
:1028600074657269616C00496E73657274206D6184
:1028700074657269616C0052616973652062756983
:102880006C64706C617465004C6F77657220627562
:10289000696C64706C61746500486F6D6520686573
:1028A000616400486561747570206275696C64705C
:1028B0006C61746500486561747570206E6F7A7A1A
:1028C0006C65004C45442073657474696E677300D1
:1028D0003C2052455455524E00536F6C6F536375F4
:1028E0006C70746F720025004300432F0043004357
:1028F0002F0025004732382058302059300025005D
:1029000046616E2073706565640047312046256915
:102910002058256920592569004732382058302031
:102920005930004731205A343000473238205A306D
:1029300000473238205A300047323820583020596A
:102940003000473238205A3000414456414E43450A
:1029500044004300432F00436C69636B20746F2075
:1029600072657475726E004E6F7A7A6C652074654C
:102970006D70657261747572653A004300432F0093
:10298000436C69636B20746F2072657475726E009E
:10299000526F7461746520746F2065787472756409
:1029A00065004E6F7A7A6C652074656D7065726132
:1029B000747572653A004300432F00436C69636B82
:1029C00020746F2072657475726E004275696C6454
:1029D000706C6174652074656D702E3A00536F6C75
:1029E0006F5363756C70746F720041707220203188
:1029F00020323031372031383A34393A32370052C8
:102A0000657475726E006D00204D61743A003A0075
:102A10005072696E74696E673A003A004D6163687E
:102A2000696E65206F6E20666F723A00526574752C
:102A3000726E00746F2064656661756C743F00523D
:102A4000657365742065766572797468696E670070
:102A50004E4F005945530080400000000000000028
:102A60000000000000000000000000000000000066
:102A70000000000000000000000000000000000056
:102A80000000000000000000000000000000000046
:102A90000000000000000000000000000000000036
:102AA0000000000000000000000000000000000026
:102AB0000000000000000000000000000000000016
:102AC0000000000000000000000000000000000006
:102AD00000000000000000000000000000000000F6
:102AE00000000000000000000000000000000000E6
:102AF00000000000000000000000000000000000D6
:102B000000000000000000000000000000000000C5
:102B100000000000000000000000000000000000B5
:102B200000000000000000000000000000000000A5
:102B30000000000000000000000000000000000095
:102B40000000000000000000000000000000000085
:102B50000000000000000000000000000000000075
:102B60000000000000000000000000000000000065
:102B70000000000000000000000000000000000055
:102B80000000000000000000000000000000000045
:102B90000000000000000000000000000000000035
:102BA0000000000000000000000000000000000025
:102BB0000000000000000000000000000000000015
:102BC0000000000000000000000000000000000005
:102BD000000000000000000000000000001C3E7B20
:102BE0007161E1C1C182020000C0E06010101010EC
:102BF00030E0E0C00000FEFE0000C0E060101010F9
:102C00001030E0E0C000001C3E7B7161E1C1C18278
:102C1000020000C0E070101010101020200000F022
:102C2000F0000000000000F0F0F00000FEFE0000E8
:102C3000F0F0701010101030E0E0800010FEFEFE8A
:102C4000101000C0E0601010101030E0E0C0000074
:102C5000F0F07010101000000000000000080810D4
:102C600010101010190F0700000F0F1C101010107B
:102C7000101F0F0700001F1F00000F0F1C10101067
:102C800010101F0F07000008081010101010190F67
:102C9000070000070F1C1010101010180800000784
:102CA0000F1C10101010101F1F1F00001F1F00000E
:102CB000FFFF1010101010180F0F0300001F1F1F30
:102CC0000000000F0F1C10101010101F0F07000045
:102CD0001F1F0000000000000000000000000000B6
:102CE00000000000000000000000000000000000E4
:102CF00000000000000000000000000000000000D4
:102D000000000000000000000000000000000000C3
:102D100000000000000000000000000000000000B3
:102D200000000000000000000000000000000000A3
:102D30000101000000000000000000000000000091
:102D40000000000000000000000000000000000083
:102D50000000000000000000000000000000000073
:102D60000000000000000000000000000000000063
:102D70000000000000000000000000000000000053
:102D80000000000000000000000000000000000043
:102D90000000000000000000000000000000000033
:102DA0000000000000000000000000000000000023
:102DB0000000000000000000000000000000000013
:102DC0000000000000000000000000000000000003
:102DD00000000000000000000000000000000000F3
:102DE00000000000000000000000000000000000E3
:102DF00000000000000000000000000000000000D3
:102E000000000000000000000000000000000000C2
:102E100000000000000000000000000000000000B2
:102E200000000000000000000000000000000000A2
:102E30000000000000000000000000000000000092
:102E40000000000000000000000000000000000082
:102E500000000000000000000043616E6E6F7420EF
:102E60006F70656E20737562646972005772697461
:102E7000696E6720746F2066696C653A20002E00C9
:102E80006F70656E206661696C65642C2046696CA4
:102E9000653A20002E006F70656E206661696C6572
:102EA000642C2046696C653A200046696C65207385
:102EB000656C6563746564002053697A653A200027
:102EC00046696C65206F70656E65643A20002E005F
:102ED0006F70656E206661696C65642C2046696C54
:102EE000653A200024F4D43050C38E20C2A240178B
:102EF000828B7011127A910D816CD90AA861E10858
:102F0000C7586607615143061E4B5D05C145A704BE
:102F10001A411104093D9803713931034036DB022F
:102F200065339102D4305402802E1D02632CEE01D1
:102F3000752AC501B028A001102781018F256401E1
:102F40002B244B01E0223401AC211F018D200D0107
:102F5000801FFC00841EED00971DDF00B81CD2000E
:102F6000E61BC600201BBC00641AB200B219A80000
:102F70000A19A0006A189900D117910040178B0018
:102F8000B516840031167E00B31579003A1573002A
:102F9000C7146F0058146A00EE13660088136300AC
:102FA00025135E00C7125B006C1257001512540007
:102FB000C111510070114F0021114B00D610490072
:102FC0008D1047004610440002104200C00F400020
:102FD000800F3E00420F3C00060F3B00CB0E380036
:102FE000930E37005C0E3500270E3400F30D3200CF
:102FF000C10D3100900D3000600D2E00320D2D00FE
:10300000050D2C00D90C2B00AE0C2900850C2900D5
:103010005C0C2700350C27000E0C2600E80B240062
:10302000C40B2400A00B23007D0B23005A0B2100AE
:10303000390B2100180B2000F80A1F00D90A1E00C6
:10304000BB0A1E009D0A1D00800A1D00630A1C00A9
:10305000470A1B002C0A1B00110A1A00F7091A0064
:10306000DD091900C4091900AB09190092091700FC
:103070007B091800630917004C0916003609160071
:10308000200916000A091500F5081500E0081400CB
:10309000CC081400B8081400A40814009008130009
:1030A0007D0812006B081300580812004608120031
:1030B0003408110023081100120811000108110042
:1030C000F0071000E0071000D0071000C007100044
:1030D000B0070F00A107100091070E0083070F0033
:1030E00074070F0065070E0057070E0049070E0012
:1030F0003B070D002E070E0020070D0013070D00E3
:1031000006070D00F9060C00ED060D00E0060C00A8
:10311000D4060C00C8060C00BC060C00B0060C005F
:10312000A4060B0099060C008D060B0082060B000E
:1031300077060B006C060B0061060A0057060B00B1
:103140004C060A0042060A0038060A002E060A004B
:1031500024060A001A060A001006090007060A00DB
:10316000FD050900F4050900EB050900E205090069
:10317000D9050900D0050900C7050900BE050900E9
:10318000B5050800AD050800A50509009C05080067
:10319000940508008C050800840508007C050800DB
:1031A000740508006C050700650508005D0507004B
:1031B000560508004E0507004705070040050800B2
:1031C00038050700310507002A0507002305070019
:1031D0001C050600160507000F0507000805060078
:1031E00002050700FB040600F5040700EE040600D4
:1031F000E8040600E2040700DB040600D50406002C
:10320000CF040600C9040600C3040600BD0406007E
:10321000B7040600B1040500AC040600A6040600CD
:10322000A00405009B040600950405009004060018
:103230008A04050085040500800406007A04050060
:1032400075040500700405006B04050066040500A4
:10325000610405005C0405005704050052040500E4
:103260004D04050048040500430405003E04040025
:103270003A04050035040500300404002C04050060
:1032800027040400230405001E0404001A0404009B
:1032900016040500110404000D04040009040500CF
:1032A0000404040000040400FC030400F803040008
:1032B000F4030400F0030400EC030400E80304003A
:1032C000E4030400E0030400DC030400D80304006A
:1032D000D4030400D0030400CC030400C80303009B
:1032E000C503030024F404D9201BC40C5C0E98040D
:1032F000C4095F0265077101F405F900FB04B3001E
:1033000048048700C10369005803550003034500C2
:10331000BE023A008402310053022A00290225002D
:1033200004022000E4011C00C8011900AF011700CD
:103330009801140084011300710110006101100054
:1033400051010E0043010D0036010B002B010B0053
:1033500020010B00150109000C0109000301080000
:10336000FB000800F3000800EB000700E400060083
:10337000DE000600D8000600D2000600CC000500E2
:10338000C7000500C2000500BD000400B90004002C
:10339000B5000400B1000400AD000400A900040061
:1033A000A5000300A20003009F0004009B0003008F
:1033B00098000300950002009300030090000300B2
:1033C0008D0002008B0003008800020086000200CE
:1033D00084000300810002007F0002007D000200E3
:1033E0007B000200790002007700010076000200F5
:1033F0007400020072000100710002006F00020000
:103400006D0001006C0002006A000100690002000A
:103410006700010066000100650001006400020011
:103420006200010061000100600001005F00020015
:103430005D0001005C0001005B0001005A0001001A
:10344000590001005800010057000100560001001A
:10345000550001005400010053000000530001001A
:103460005200010051000100500001004F00010016
:103470004E0000004E0001004D0001004C00010014
:103480004B0000004B0001004A0001004900010010
:10349000480000004800010047000100460000000D
:1034A0004600010045000000450001004400010005
:1034B0004300000043000100420000004200010000
:1034C0004100000041000100400001003F000000F9
:1034D0003F0001003E0000003E0001003D000000F2
:1034E0003D0001003C0000003C0000003C000100E9
:1034F0003B0000003B0001003A0000003A000100E0
:1035000039000000390001003800000038000000D8
:1035100038000100370000003700010036000000CD
:1035200036000000360001003500000035000000C4
:1035300035000100340000003400000034000100B8
:1035400033000000330000003300010032000000AF
:1035500032000000320001003100000031000000A4
:103560003100010030000000300000003000010098
:103570002F0000002F0000002F0000002F0001008E
:103580002E0000002E0000002E0001002D00000083
:103590002D0000002D0000002D0001002C00000077
:1035A0002C0000002C0000002C0001002B0000006B
:1035B0002B0000002B0000002B0001002A0000005F
:1035C0002A0000002A0000002A0001002900000053
:1035D0002900000029000000290000002900010046
:1035E000280000002800000028000000280000003B
:1035F000280001002700000027000000270000002D
:10360000270000002700010026000000260000001F
:103610002600000026000000260001002500000012
:103620002500000025000000250000002500000006
:1036300025000100240000002400000024000000F8
:1036400024000000240001002300000023000000EB
:1036500023000000230000002300000023000000DE
:1036600023000100220000002200000022000000D0
:1036700022000000220000002200010021000000C2
:1036800021000000210000002100000021000000B6
:1036900021000000210001002000000020000000A7
:1036A000200000002000000020000000200000009A
:1036B00020000000200001001F0000001F0000008B
:1036C0001F0000001F0000001F0000001F0000007E
:1036D0001F0001001E0000001E0000001E00000070
:1036E0001E0000004D383400473238004732382081
:1036F0005A300047323820583020593000473120A6
:103700004625692045300047393220452569004D5E
:10371000343031003C204241434B003C2052455460
:1037200055524E004E6F20696E666F20617661695A
:103730006C61626C65004E6F7A7A6C653A20006D40
:10374000006D004D6174657269616C3A20005469C6
:103750006D653A20003B4D545950453A003B4E4F61
:103760005A5A4C455F4449414D455445523A003BF5
:103770004D4154455249414C3A003B54494D453A1C
:1037800000466F6C6465720043616E6E6F742065F5
:103790006E746572207375626469723A20005344D6
:1037A00020434152440047312046313230303020EE
:1037B00058352059313000473238003B464C41568D
:1037C0004F523A556C746947436F6465003B464CF1
:1037D00041564F523A556C746947436F6465004EC9
:1037E0006F2066696C657320666F756E6421004F8B
:1037F0004B004F4B0052656164696E6720636172D4
:10380000642E2E2E00506C6561736520696E7365A1
:1038100072742063617264004E6F2053442D4341E3
:1038200052442100507265706172696E6720746F36
:10383000207072696E743A0048656174696E672021
:1038400075702E2E2E0041424F52540054554E4555
:1038500000526573656E643A20006F6B000026E4C9
:1038600005E411241FBECFEFD1E2DEBFCDBF00E0E3
:103870000CBF13E0A0E0B2E0EAE4F2EE01E00BBF1F
:1038800002C007900D92A832B107D9F729E1A8E24A
:10389000B3E001C01D92AE3EB207E1F71CE1C0E308
:1038A000DCE100E006C021970109802FFE010E94A3
:1038B00069F0CF32D10780E00807A9F70E9477D7D7
:1038C0000C9414F10C9400002F923F924F925F924F
:1038D0006F927F928F929F92AF92BF92CF92DF9220
:1038E000EF92FF920F931F93CF93DF93CDB7DEB785
:1038F000CB56D1090FB6F894DEBF0FBECDBF1092E4
:10390000830F87E40E948C53F82E882309F419C48E
:103910000E94B2530E94FAED6A30710509F48EC01C
:1039200084F46230710581F124F477FF23C00C9494
:10393000F0376330710581F164307105C1F10C9489
:10394000F0376A35710509F4BCC354F46B30710566
:1039500009F40AC16C31710509F47CC10C94F0378B
:103960006B35710509F4B1C36C35710509F4B2C347
:103970000C94F0378091AC04811106C00E943CD5B4
:103980000E947DD40C94E83D8091AC04811104C068
:103990000E94A0D681E007C08091AC04811107C0CD
:1039A0000E94A0D680E00E943DD10C94E83D80E5C5
:1039B0000E948C53882339F00E94B2530E9400EE7B
:1039C0006B017C0103C0C12CD12C760183E50E94E0
:1039D0008C53882361F00E94B25320E030E04AE724
:1039E00054E40E94BFE40E9400EE6B017C010E943F
:1039F0006FBE0E943176C60ED71EE81EF91E0E94C9
:103A000031766093E9077093EA078093EB07909310
:103A1000EC0781E08093830F0E9431766C157D0561
:103A20008E059F0510F00C94F0370E94D1790E940A
:103A3000D3610E9446490E94E19DEECF8091BF195B
:103A400081110C94F03780912D0B90912E0BA09149
:103A50002F0BB091300B8093AE0A9093AF0AA093D6
:103A6000B00AB093B10A8091310B9091320BA091C2
:103A7000330BB091340B8093B20A9093B30AA093A6
:103A8000B40AB093B50A8091350B9091360BA09192
:103A9000370BB091380B8093B60A9093B70AA09376
:103AA000B80AB093B90AC090390BD0903A0BE090A5
:103AB0003B0BF0903C0BE091550B24E0E29FF001B2
:103AC0001124EF5AF44F208131814281538160915A
:103AD0003702709138028091390290913A020E9427
:103AE00089ED9B01AC01C701B6010E94A6EC9B01C8
:103AF000AC016093BA0A7093BB0A8093BC0A90939E
:103B0000BD0A80901A0290901B02A0901C02B090F7
:103B10001D028091330290913402A0913502B09140
:103B2000360280931A0290931B02A0931C02B0935A
:103B30001D02C701B6010E94A6EC6093C2197093E2
:103B4000C3198093C4199093C51981E08093BF195C
:103B50000E947DD480921A0290921B02A0921C02B5
:103B6000B0921D020C94F0378091BF19882311F494
:103B70000C94F03780912D0B90912E0BA0912F0B70
:103B8000B091300B8093AE0A9093AF0AA093B00A25
:103B9000B093B10A8091310B9091320BA091330B0D
:103BA000B091340B8093B20A9093B30AA093B40AF5
:103BB000B093B50A8091350B9091360BA091370BDD
:103BC000B091380B8093B60A9093B70AA093B80AC5
:103BD000B093B90A2091C2193091C3194091C41908
:103BE0005091C5196091390B70913A0B80913B0B44
:103BF00090913C0B0E94A7EC6093BA0A7093BB0AA9
:103C00008093BC0A9093BD0AC0901A02D0901B0208
:103C1000E0901C02F0901D028091460290914702B4
:103C2000A0914802B091490280931A0290931B021E
:103C3000A0931C02B0931D021092BF190E947DD464
:103C4000C0921A02D0921B02E0921C02F0921D0256
:103C50000C94F03785E08093830F80911A02909145
:103C60001B02A0911C02B0911D0280932A03909325
:103C70002B03A0932C03B0932D03809131029091DC
:103C80003202909329038093280384E690E0909376
:103C90003202809331020E9431766093E90770937B
:103CA000EA078093EB079093EC0711E0109315025D
:103CB00080912D0B90912E0BA0912F0BB091300B7A
:103CC0008093AE0A9093AF0AA093B00AB093B10A62
:103CD0008091310B9091320BA091330BB091340B4A
:103CE0008093B20A9093B30AA093B40AB093B50A32
:103CF0008091350B9091360BA091370BB091380B1A
:103D00008093B60A9093B70AA093B80AB093B90A01
:103D10008091390B90913A0BA0913B0BB0913C0BE9
:103D20008093BA0A9093BB0AA093BC0AB093BD0AD1
:103D300010921A0210921B0210921C0210921D0285
:103D400088E50E948C53882311F080E009C089E542
:103D50000E948C538111F9CF8AE50E948C538127F0
:103D600080930402882309F4F4C010922D0B109262
:103D70002E0B10922F0B1092300B1092310B1092D1
:103D8000320B1092330B1092340B1092350B1092B1
:103D9000360B1092370B1092380B0E940C8180E08A
:103DA00090E8A6EAB3EC8093AE0A9093AF0AA09392
:103DB000B00AB093B10A80E090E6A8EAB3E4809339
:103DC000B20A9093B30AA093B40AB093B50A80E004
:103DD00090ECA8EAB3E48093B60A9093B70AA09354
:103DE000B80AB093B90A80E090E8ABEBB5E48093F1
:103DF0001A0290931B02A0931C02B0931D0245E58A
:103E0000C42E4BE0D42EE12CF12C08EC12E42AEB6A
:103E10003AE046EB5AE062EB7AE08EEA9AE00E94E2
:103E2000689F0E946FBE0E9400C580E090E00E94E3
:103E3000545381E090E00E94545382E090E00E944D
:103E400054530E940C8180912D0B90912E0BA091C8
:103E50002F0BB091300B8093AE0A9093AF0AA093D2
:103E6000B00AB093B10A8091310B9091320BA091BE
:103E7000330BB091340B8093B20A9093B30AA093A2
:103E8000B40AB093B50A8091350B9091360BA0918E
:103E9000370BB091380B8093B60A9093B70AA09372
:103EA000B80AB093B90A20E030E040E752E46091EC
:103EB0001A0270911B0280911C0290911D020E94B7
:103EC00089ED7B018C012AEB3AE046EB5AE062EB8C
:103ED0007AE08EEA9AE00E94689F10921A0210928D
:103EE0001B0210921C0210921D020E946FBE0E94C3
:103EF00000C58091AE0A9091AF0AA091B00AB0912E
:103F0000B10A80932D0B90932E0BA0932F0BB0939F
:103F1000300B8091B20A9091B30AA091B40AB0918B
:103F2000B50A8093310B9093320BA093330BB0936F
:103F3000340B8091B60A9091B70AA091B80AB0915B
:103F4000B90A8093350B9093360BA093370BB0933F
:103F5000380B8091040281110C94F5378AE50E9498
:103F60008C5381110C94F5378091040281110C94CB
:103F7000FB3788E50E948C53882331F089E50E9445
:103F80008C5381110C94FB378091040281110C94A5
:103F9000C73888E50E948C5381110C94C7388091F2
:103FA000040281110C94CD3889E50E948C53811153
:103FB0000C94CD3888E50E948C538823D1F00E9460
:103FC000A753672B682B692BA1F00E94B253209155
:103FD00098103091991040919A1050919B100E9426
:103FE000A7EC60932D0B70932E0B80932F0B909367
:103FF000300B89E50E948C538823D1F00E94A7538F
:10400000672B682B692BA1F00E94B25320919C1062
:1040100030919D1040919E1050919F100E94A7ECEE
:104020006093310B7093320B8093330B9093340B6E
:104030008AE50E948C538823D1F00E94A753672BF6
:10404000682B692BA1F00E94B2532091A0103091EF
:10405000A1104091A2105091A3100E94A7EC609370
:10406000350B7093360B8093370B9093380B0E946F
:104070000C811092150280912A0390912B03A0913C
:104080002C03B0912D0380931A0290931B02A093EE
:104090001C02B0931D0280912803909129039093F4
:1040A0003202809331020E9431766093E907709367
:1040B000EA078093EB079093EC070E9400C50C94ED
:1040C000F0371092CB190C94F03781E08093CB1924
:1040D0000C94F03785E40E948C53811102C00E9439
:1040E0006FBE2FEFC22E22E0D22E3DE2E32E3BE048
:1040F000F32E10E0D6018D916D010E948C53882320
:10410000C1F0133061F40E94B253F70160837183F0
:104110008283938389E39BE00E945C9D0AC00E9496
:10412000B253D7016D937D938D939C9313970E9407
:104130000C811F5FB4E0EB0EF11C1430D9F60C9427
:10414000F0378DE40E948C53882311F40C947C3555
:104150000E94B2530E94FAED6C38710509F407C44D
:104160000CF0ACC06035710509F4BDC60CF04CC054
:104170006731710509F4F5C134F56231710509F44F
:10418000BFC69CF477FF02C00C94F0376230710513
:104190000CF479C16131710511F00C94F037159868
:1041A0004698439840980C94F0376531710509F4AE
:1041B000CCC10CF0CEC16431710511F00C94F03714
:1041C000EEE7F6E079C16B31710509F407C23CF402
:1041D0006931710509F4F0C10CF4D9C1F1C16E3136
:1041E000710509F49BC234F46C31710509F464C2A1
:1041F0000C94F0376F31710509F4FCC26A32710515
:1042000009F454C30C94F0376A36710509F4F6C505
:1042100024F56435710509F473C654F462357105EB
:1042200009F465C60CF067C60A9A12980C94F03728
:104230006C35710509F4B2C634F46535710509F4BD
:1042400092C60C94F0376836710509F469C3693673
:10425000710509F4A8C30C94F0376337710509F4AC
:1042600023C78CF46D36710509F496C46237710565
:1042700009F43BC76B36710511F00C94F0371092BE
:1042800097100C94F0376737710511F40C94572987
:1042900034F46537710509F416C70C94F0376837A4
:1042A000710511F40C9453296937710511F00C94C0
:1042B000F03781E0809315020C94F037643FE1E021
:1042C0007E0711F40C9446300CF061C0613D71051D
:1042D00011F40C94FD2A54F56C3C710511F40C9406
:1042E0000A2A84F4693C710511F40C94CA296B3CC8
:1042F000710511F40C94EC296E3B710511F00C94CE
:10430000F037A2C46E3C710511F40C948C2A14F49D
:104310000C942C2A6F3C710511F40C94AA2A603D70
:10432000710511F40C94DB2A0C94F0376D3221E006
:10433000720711F40C94162C94F46D3D710511F470
:104340000C94722B6C3241E0740711F40C94892B9D
:104350006C3D710511F00C94F0370C94612B6F32A9
:1043600051E0750711F40C94F72C14F40C94E22C22
:10437000603991E0790711F40C9443306139714050
:1043800011F00C94F0370E944DBE0C94F037603A57
:10439000B3E07B0709F4F9C19CF56935F2E07F07CA
:1043A00011F40C944F3094F4663F31E0730711F42C
:1043B0000C944C3014F40C944930673F714011F068
:1043C0000C94F0370E9450560C94F0376E3582E012
:1043D000780711F40C9417333CF46D35724011F4E6
:1043E0000C945E320C94F0376B38B3E07B0711F419
:1043F0000C94D4336B39734009F49EC10C94F0379C
:104400006231F7E27F0711F40C94573424F56031E0
:1044100037E2730711F40C94123414F00C94153431
:10442000673E734011F00C94F0371092AC04809109
:10443000ED079091EE07A091EF07B091F007809300
:10444000AD049093AE04A093AF04B093B0040E9467
:10445000FAD60C94F037643187E2780711F40C94A3
:10446000D83414F40C94A8346531A7E27A0711F417
:104470000C9408356A31774211F00C94F037EAEA6F
:10448000F4E00C943F3581E08093840D8091840D9D
:10449000882311F40C94F0370E94D1790E94D361E3
:1044A0000E9446490E94E19DF1CF9091C00095FF86
:1044B000FCCF8093C600319684918111F6CF809114
:1044C000C00085FFFCCF8AE08093C60010927A0F6F
:1044D0001092790F40E050E0BA0186EB9DE00E9417
:1044E000FC4C8BE1E6EBFDE0DE01159601900D92B0
:1044F0008A95E1F78091B40D9091B50D9C838B83E3
:1045000083EE92E09A838983BE016F5F7F4F87E2DB
:1045100093E00E944EBBCE0101960E94D05EE0E780
:10452000F6E08491882341F09091C00095FFFCCF84
:104530008093C6003196F5CF8091C00085FFFCCFF7
:104540008AE08093C6000C94F0370E949E7F0C9402
:10455000F0371092830D1092840D1092B10D0C94CF
:10456000F0370091B1041091B2040C5F1F4F6AE262
:1045700070E0C8010E94D1F0009719F0FC0131975A
:10458000108261E0C8010E9467B90C94F0378091F5
:10459000B10D882329F081E08093830D1092840D62
:1045A0000E94317660931C0470931D0480931E0456
:1045B00090931F040C94F0370E9441BB0C94F03789
:1045C0008091B10D882311F40C94F03780912B0F5A
:1045D000882311F40C94D3380C94F0378091B10DEA
:1045E0008823A9F1E1EBF2E08491882341F09091D6
:1045F000C00095FFFCCF8093C6003196F5CF609147
:10460000740F7091750F8091760F9091770F4AE03B
:104610000E94A27DEFEAF2E08491882341F090911C
:10462000C00095FFFCCF8093C6003196F5CF609116
:104630006C0F70916D0F80916E0F90916F0F4AE02B
:104640000E94A27D8091C00085FFFCCF11C0EFE9E0
:10465000F2E08491882341F09091C00095FFFCCF57
:104660008093C6003196F5CF8091C00085FFFCCFC6
:104670008AE08093C60060912B0F662311F40C949E
:10468000F037E3E9F2E08491882341F09091C00093
:1046900095FFFCCF8093C6003196F5CF70E080E0A7
:1046A00090E00E94177E8091C00085FFFCCF8AE0D9
:1046B0008093C6000C94F0378091B1049091B204BD
:1046C0006AE270E004960E94D1F08C01892BE1F03F
:1046D0002091CC073091CD0740E6429FC001439F17
:1046E000900D11246EE470E084539B4F0E94D1F032
:1046F00060E270E00E94D1F001969093B204809342
:10470000B104F801319710828091B1049091B20404
:1047100060E004960E9467B90C94F0378091B10D67
:10472000882311F40C94F03780912B0F882311F417
:104730000C94EA380C94F0370091B1041091B20453
:104740000C5F1F4F6AE270E0C8010E94D1F0009731
:1047500019F0FC013197108261E0C8010E9467B92D
:104760008091B10D882329F081E08093830D109210
:10477000840D0E94317660931C0470931D04809315
:104780001E0490931F040C94F0378091B104909113
:10479000B2046AE270E005960E94D1F08C01892B88
:1047A000E1F02091CC073091CD0740E6429FC00157
:1047B000439F900D11246EE470E084539B4F0E9440
:1047C000D1F060E270E00E94D1F001969093B204C3
:1047D0008093B104F801319710828091B1049091D7
:1047E000B20421E02093820D60E005960E9467B933
:1047F0000C94F0370E94317660932004709321046A
:10480000809322049093230400911C0410911D04B2
:1048100020911E0430911F04601B710B820B930BBF
:1048200028EE33E040E050E00E946BECCA01B90191
:104830002CE330E040E050E00E946BEC7F936F93FC
:104840003F932F9381E696E09F938F938E010F5FA6
:104850001F4F1F930F930E94EAE8EEE7F7E0849161
:104860000FB6F894DEBF0FBECDBFEEE7F7E08823AA
:1048700049F09091C00095FFFCCF8093C60031961F
:104880008491F5CFF8018191882339F09091C0008F
:1048900095FFFCCF8093C600F6CF8091C00085FFC6
:1048A000FCCF8AE08093C6000C94F03783E50E9429
:1048B0008C53882311F40C94F0370E94B2530E9459
:1048C000FAEDF62EE72E862F9E2D8C0180E50E94B4
:1048D0008C53882331F00F3F110509F010F40C942C
:1048E0005B3A88E090E0EAE5F2E021913191281707
:1048F000390711F40C94F03722E0E239F207A9F7F6
:104900008730910519F4F092971004C097FF02C008
:104910000C94F0376F2D7E2D0E9445750C94F03766
:1049200088E690E00E94D85E81110C94F03783E510
:104930000E948C53882311F40C94F0370091F107F6
:104940000E94B25310E00E94FAEDF801EE0FFF1F33
:10495000EF52F54F718360836430714014F40C940E
:10496000F03784E091E0918380830C94F03783E505
:104970000E948C53882311F40C94F0370E94B25398
:104980000E94FAED7093D40A6093D30A63377105DD
:1049900014F40C94F03783E790E09093D40A80935A
:1049A000D30A0C94F03789E690E00E94D85E81111A
:1049B0000C94F037ECE5F6E08491882341F0909177
:1049C000C00095FFFCCF8093C6003196F5CFEAE595
:1049D000F6E08491882341F09091C00095FFFCCFD0
:1049E0008093C6003196F5CFE091F10744E0E49F53
:1049F000F0011124E353F54F60817181828193812D
:104A000041E00E94297EE7E5F6E08491882341F0A9
:104A10009091C00095FFFCCF8093C6003196F5CFF2
:104A2000E091F107F0E0EE0FFF1FEF52F54F6081CC
:104A30007181072E000C880B990B0E941FE941E041
:104A40000E94297EE3E5F6E08491882341F090916D
:104A5000C00095FFFCCF8093C6003196F5CF6091E2
:104A6000C90A7091CA0A8091CB0A9091CC0A41E0A0
:104A70000E94297EE0E5F6E08491882341F0909140
:104A8000C00095FFFCCF8093C6003196F5CF6091B2
:104A9000D30A7091D40A072E000C880B990B0E9440
:104AA0001FE941E00E94297EECE4F6E0849188232E
:104AB00041F09091C00095FFFCCF8093C6003196E5
:104AC000F5CFE091F107F0E0E952F54F608170E039
:104AD00080E090E00E94177EE7E4F6E0849188236E
:104AE00041F09091C00095FFFCCF8093C6003196B5
:104AF000F5CF6091D60A70E080E090E00E94177ECA
:104B0000E2E4F6E08491882341F09091C00095FFA3
:104B1000FCCF8093C6003196F5CF6091CD0A70919D
:104B2000CE0A8091CF0A9091D00A41E00E94297E5E
:104B3000EFE3F6E08491882341F09091C00095FF67
:104B4000FCCF8093C6003196F5CF6091D10A709169
:104B5000D20A072E000C880B990B0E941FE941E036
:104B60000E94297EEAE3F6E08491882341F0909147
:104B7000C00095FFFCCF8093C6003196F5CF6091C1
:104B8000D70A70E080E090E00E94177E8091C0001C
:104B900085FFFCCF0C9477358DE690E00E94D85EBF
:104BA00081110C94F03783E08093830F83E50E949A
:104BB0008C538823A9F00091F1070E94B25310E0B2
:104BC0000E94FAEDF801EE0FFF1FEF52F54F7183CF
:104BD00060836430714024F084E091E091838083AD
:104BE0000E9431762B013C01E091F1070E2F10E07D
:104BF000F801EE0FFF1FEF52F54F60817181072E14
:104C0000000C880B990B0E941FE9F801EE0FFF1FA3
:104C1000EE0FFF1FE353F54F11E0208131814281F8
:104C200053810E94E6EE18160CF010E088248A9456
:104C3000982C54016EE2262E66E0362E7CE2E72E9A
:104C400076E0F72E0C94053B84E08093830F83E598
:104C50000E948C53882389F00E94B2530E94FAED7F
:104C60007093D40A6093D30A6337710534F083E7F5
:104C700090E09093D40A8093D30A0E9431762B015E
:104C80003C010AE216E078E2E72E76E0F72EE4E255
:104C9000CE2EE6E0DE2EF0E2AF2EF6E0BF2E6091E3
:104CA000D30A7091D40A62507109072E000C880B48
:104CB000990B0E941FE99B01AC016091C90A709198
:104CC000CA0A8091CB0A9091CC0A0E9419E987FF09
:104CD00089C00E943176DC01CB0184199509A609AF
:104CE000B709893E9340A105B10508F472C0E0916F
:104CF000550B24E0E29FF0011124E353F54F40806F
:104D0000518062807380F8018491EAE2F6E08823A2
:104D100049F09091C00095FFFCCF8093C60031967A
:104D20008491F5CF6091F10770E080E090E04AE077
:104D30000E94A27DF7018491E8E2F6E0882349F021
:104D40009091C00095FFFCCF8093C600319684916E
:104D5000F5CF42E0C301B2010E94297EF6018491A1
:104D6000E4E2F6E0882349F09091C00095FFFCCF83
:104D70008093C60031968491F5CF6091550B70E019
:104D800080E090E00E94177EF5018491E0E2F6E079
:104D9000882349F09091C00095FFFCCF8093C60016
:104DA00031968491F5CF6091C90A7091CA0A8091B9
:104DB000CB0A9091CC0A41E00E94297E8091C000EC
:104DC00085FFFCCF8AE08093C6000E9431762B01DC
:104DD0003C010E94D1790E94D3610E9446490E9401
:104DE000E19D5DCF0E9431766093E9077093EA07F9
:104DF0008093EB079093EC070C94F03783E50E94C7
:104E00008C53882309F461C00E94B2536B017C016A
:104E100080914502682F70E080E090E00E941FE9D9
:104E20009B01AC01C701B6010E94BFE420E030E065
:104E300048EC52E40E9489ED20E030E0A9010E9494
:104E400019E987FD3BC00E94B2536B017C01809140
:104E50004502682F70E080E090E00E941FE99B010E
:104E6000AC01C701B6010E94BFE420E030E048EC8D
:104E700052E40E9489ED20E030E04FE753E40E94C5
:104E8000E6EE1816ECF00E94B2536B017C018091A3
:104E90004502682F70E080E090E00E941FE99B01CE
:104EA000AC01C701B6010E94BFE420E030E048EC4D
:104EB00052E40E9489ED0E9400EE03C060E001C050
:104EC0006FEF609397100C94F03780914502FFEFDD
:104ED0008F9FC001112464E670E00E943AF0609355
:104EE00097100C94F0370A9A129A0C94F03710929B
:104EF000CF190C94F03781E08093CF190C94F037E0
:104F000083E50E948C538823A1F00E94B25320E0D5
:104F100030E04AE754E40E94BFE40E9400EE609350
:104F200016027093170280931802909319020C9442
:104F3000F03788E50E948C5381110C94BB3B89E5C6
:104F40000E948C5381110C94BB3B8AE50E948C53C8
:104F500081110C94BB3B85E40E948C5381110C940D
:104F6000BB3B0C94D43B83E50E948C53882311F403
:104F70000C94F0370E94B25320E030E04AE754E44A
:104F80000E94BFE40E9400EE6093E5077093E6077D
:104F90008093E7079093E8070C94F0375FEF852E36
:104FA00052E0952E06E61BE06BE7A62E60E1B62EDA
:104FB00024EA34E13DAF2CAF312CD4018D914D0169
:104FC0000E948C53882309F45EC0B3E03B1254C0A6
:104FD0000E94B2532B013C0120E030E040EA51E452
:104FE0000E9419E987FF41C0A3019201F801608185
:104FF0007181828193810E9489ED6B017C019B010B
:10500000AC01609167107091681080916910909167
:105010006A100E94BFE460936710709368108093D9
:10502000691090936A10A7019601D5016D917D9149
:105030008D919C910E94BFE4F5016083718382830E
:105040009383ACADBDAD6D917D918D919C910E948E
:105050001DE9A70196010E94BFE40E9400EEECAD9D
:10506000FDAD6083718382839383D8014D925D92FD
:105070006D927C92139707C00E94B253F80160832F
:1050800071838283938333940C5F1F4FF4E0AF0EE0
:10509000B11C2CAD3DAD2C5F3F4F3DAF2CAF34E08C
:1050A00033128BCF0C94F037E3E5F5E0849188233D
:1050B00011F40C94F0379091C00095FFFCCF8093D1
:1050C000C6003196F3CF8091B1049091B2046AE2A8
:1050D00070E005960E94D1F0009711F40C94F0371F
:1050E000FC01319710820C94F037E0E5F5E08491F3
:1050F000882341F09091C00095FFFCCF8093C600BB
:105100003196F5CF60912D0B70912E0B80912F0B66
:105110009091300B42E00E94297EEDE4F5E084910D
:10512000882341F09091C00095FFFCCF8093C6008A
:105130003196F5CF6091310B7091320B8091330B2A
:105140009091340B42E00E94297EEAE4F5E08491DC
:10515000882341F09091C00095FFFCCF8093C6005A
:105160003196F5CF6091350B7091360B8091370BEE
:105170009091380B42E00E94297EE7E4F5E08491AB
:10518000882341F09091C00095FFFCCF8093C6002A
:105190003196F5CF6091390B70913A0B80913B0BB2
:1051A00090913C0B42E00E94297EECE3F5E0849173
:1051B000882341F09091C00095FFFCCF8093C600FA
:1051C0003196F5CF2FB7F89460911D0B70911E0B9F
:1051D00080911F0B9091200B2FBF0E941FE92091FF
:1051E000660B3091670B4091680B5091690B0E94E0
:1051F00089ED42E00E94297EE9E3F5E0849188236D
:1052000041F09091C00095FFFCCF8093C60031968D
:10521000F5CF2FB7F8946091210B7091220B8091FC
:10522000230B9091240B2FBF0E941FE920916A0B42
:1052300030916B0B40916C0B50916D0B0E9489ED7E
:1052400042E00E94297EE6E3F5E08491882341F064
:105250009091C00095FFFCCF8093C6003196F5CFAA
:105260002FB7F8946091250B7091260B8091270B36
:105270009091280B2FBF0E941FE920916E0B309157
:105280006F0B4091700B5091710B0E9489ED42E0C1
:105290000E94297E8091C00085FFFCCF8AE0809328
:1052A000C6000C94F037109215020C94F037EDE123
:1052B000F5E08491882341F09091C00095FFFCCFE8
:1052C0008093C6003196F5CF8091C00085FFFCCF5A
:1052D0008AE08093C600E5E1F5E08491882341F0FF
:1052E0009091C00095FFFCCF8093C6003196F5CF1A
:1052F000009B03C0E6E0F5E00AC0EBE0F5E007C084
:105300009091C00095FFFCCF8093C60031968491A8
:105310008111F6CFEEEFF4E08491882341F0909173
:10532000C00095FFFCCF8093C6003196F5CF049B5B
:1053300003C0EFEEF4E00AC0E4EFF4E007C09091A0
:10534000C00095FFFCCF8093C600319684918111F7
:10535000F6CFE7EEF4E08491882341F09091C0000D
:1053600095FFFCCF8093C6003196F5CF079B03C015
:10537000E8EDF4E00AC0EDEDF4E007C09091C00064
:1053800095FFFCCF8093C600319684918111F6CFB2
:105390000C94F03734EBE32E34E1F32E0FEF12E0F0
:1053A00044E0D42ED00ED8018D918D010E948C53F3
:1053B000882349F00E94B2530E9400EEF7016083F7
:1053C000718382839383F4E0EF0EF11CD012EBCF54
:1053D0000E9476C50C94F0379BE7E92E90E1F92EF8
:1053E0000FEF12E024E0D22ED00ED8018D918D0166
:1053F0000E948C53882339F00E94B253F7016083D6
:10540000718382839383F4E0EF0EF11CD012EDCF11
:105410000C94F03783E50E948C53882351F00E944E
:10542000B2536093731070937410809375109093BF
:10543000761084E50E948C53882311F40C94F03785
:105440000E94B25360937710709378108093791014
:1054500090937A100C94F03783E50E948C53882344
:1054600051F00E94B25360938F107093901080930C
:1054700091109093921084E50E948C53882351F0F0
:105480000E94B25360939310709394108093951080
:105490009093961082E40E948C53882361F00E94BE
:1054A000B2530E9400EE60938B1070938C10809327
:1054B0008D1090938E1088E50E948C53882351F0B4
:1054C0000E94B25360936F107093701080937110AC
:1054D000909372108AE50E948C53882351F00E94A9
:1054E000B25360936B1070936C1080936D10909317
:1054F0006E1085E40E948C53882311F40C94F037CD
:105500000E94B25360936710709368108093691083
:1055100090936A100C94F03718E9E12E10E1F12E07
:105520000FEF12E083E0D82ED00ED8018D918D01BF
:105530000E948C53882339F00E94B253F701608394
:10554000718382839383F4E0EF0EF11CD012EDCFD0
:105550000C94F03783E50E948C53882351F00E940D
:10556000B25360933702709338028093390290935C
:105570003A0286E40E948C53882351F00E94B25371
:105580006093330270933402809335029093360215
:105590008AE50E948C53882311F40C94F0370E9402
:1055A000B25360934A0270934B0280934C029093E3
:1055B0004D020C94F03783E50E948C53882351F000
:1055C0000E94B2536093C2197093C3198093C41997
:1055D0009093C51986E40E948C53882311F40C948F
:1055E000F0370E94B2536093460270934702809353
:1055F0004802909349020C94F03783E50E948C5343
:10560000882311F40C94F0370E94B2530E94FAEDF3
:105610006115710551F06130710569F481E0809385
:10562000C6191092BF190C94F0371092C619109237
:10563000BF190C94F037EEE7F7E08491882341F02E
:105640009091C00095FFFCCF8093C6003196F5CFB6
:10565000E5ECF4E08491882341F09091C00095FF3F
:10566000FCCF8093C6003196F5CF8091CC07909106
:10567000CD0720E6289FF001299FF00D1124E45367
:10568000FB4F8191882339F09091C00095FFFCCFAA
:105690008093C600F6CFE3ECF4E08491882341F0D8
:1056A0009091C00095FFFCCF8093C6003196F5CF56
:1056B0008091C00085FFFCCF8AE08093C6000C94E7
:1056C000F03783E50E948C53882311F40C94F03753
:1056D0000E94B2530E94FAED70933202609331023D
:1056E0000C94F03783E50E948C53882311F40C94BA
:1056F000F0370091550B10E00E94B253000F111FBC
:10570000055C1D4F0E94FAEDD8016D937C930C94BB
:10571000F03783E50E948C53882331F00E94B25306
:105720000E9400EE7B0103C0AEE6EA2EF12C80E57C
:105730000E948C53882311F40C94DA3B0E94B253DC
:105740000E9400EE8B01E114F10409F443C09701BB
:1057500040E050E060E271EA87E090E00E944DF0A6
:1057600069017A01F22FED2DA701013ABFE01B0775
:1057700010F000EA1FE09801A4EFB1E00E9497EC5E
:105780002F2F3E2F0E946BECB601CC0CDD1CCC0CF5
:10579000DD1CE5E0CE1AD10880E090E0DC01821744
:1057A0009307A407B50711F40C94F0375B9A6230A5
:1057B000710518F0F6013197F1F75B9862307105C9
:1057C00018F0F6013197F1F70196A11DB11DE7CF51
:1057D00008EE13E06801E12CF12C0E940C764B01DD
:1057E0005C01C114D104E104F10411F40C94F0370C
:1057F0000E940C76DC01CB0188199909AA09BB0922
:10580000883E9340A105B10560F3F1E0CF1AD108BD
:10581000E108F10828EE820E23E0921EA11CB11CC3
:10582000C114D104E104F10419F7DBCF80E50E9433
:105830008C53882351F00E94B253609322027093DC
:105840002302809324029093250289E40E948C53C2
:10585000882381F00E94B2532DEB37E346E05DE3ED
:105860000E94BFE46093090270930A0280930B02C6
:1058700090930C0284E40E948C53882381F00E9450
:10588000B2532DEB37E346E05DE30E9489ED609370
:105890001E0270931F02809320029093210283E4E2
:1058A0000E948C53882351F00E94B25360930002EF
:1058B0007093010280930202909303020E941D7C68
:1058C000E0ECF4E08491882341F09091C00095FFD2
:1058D000FCCF8093C6003196F5CFECEBF4E08491D9
:1058E000882341F09091C00095FFFCCF8093C600C3
:1058F0003196F5CF609122027091230280912402AB
:105900009091250242E00E94297EE8EBF4E0849128
:10591000882341F09091C00095FFFCCF8093C60092
:105920003196F5CF2DEB37E346E05DE36091090258
:1059300070910A0280910B0290910C020E9489EDF5
:1059400042E00E94297EE4EBF4E08491882341F058
:105950009091C00095FFFCCF8093C6003196F5CFA3
:105960002DEB37E346E05DE360911E0270911F026C
:1059700080912002909121020E94BFE442E00E94A7
:10598000297EE0EBF4E08491882341F09091C000FF
:1059900095FFFCCF8093C6003196F5CF6091000251
:1059A00070910102809102029091030242E00E94F4
:1059B000297E8091C00085FFFCCF8AE08093C600DD
:1059C0000C94F03783E50E948C53882319F00E94D1
:1059D000B25303C060E070E0CB0160933D0270936E
:1059E0003E0280933F02909340020C94F03785E48E
:1059F0000E948C53882341F00E94B2530E94FAED1A
:105A00008B0177FF03C011C000E010E028961FAEA5
:105A1000289729961FAE299746E12A964FAF2A97D5
:105A200053E42B965FAF2B970EC028961FAE289796
:105A300029961FAE29978CE82A968FAF2A9792E471
:105A40002B969FAF2B9783E50E948C53882371F090
:105A50000E94B25328966FAF289729967FAF299757
:105A60002A968FAF2A972B969FAF2B9783E40E949D
:105A70008C53882349F00E94B2530E94FAEDA796F6
:105A80007FAF6EAFA79706C0A5E0B0E0A796BFAF07
:105A9000AEAFA7970E94317627966CAF7DAF8EAFE1
:105AA0009FAF279702301105B4F0EDEFF3E084913A
:105AB000882341F09091C00095FFFCCF8093C600F1
:105AC0003196F5CF8091C00085FFFCCF8AE08093AE
:105AD000C6000C94F037EAEEF3E08491882341F09D
